S01700004763634170706C69636174696F6E312E737265635B
S1130000AAC0000063C60000C3C00000C1C0000055
S1130010BFC00000BDC00000BBC00000B9C00000EC
S1130020B7C00000B5C00000B3C00000B1C00000FC
S1130030AFC00000ADC00000ABC00000A9C000000C
S1130040A7C00000A5C00000A3C00000A1C000001C
S11300509FC000006E616E00696E660000407A10F9
S1130060F35A00A0724E18090010A5D4E80000E865
S11300707648170000E40B54020000CA9A3B0000C3
S113008000E1F505000080969800000040420F0052
S11300900000A08601000000102700000000E80313
S11300A0000000006400000000000A0000000000DE
S11300B00100000000002C76D888DC674F0823DF9D
S11300C0C1DFAE59E1B1B796E5E3E453C63AE65170
S11300D0997696E8E6C28426EB898C9B62ED407C97
S11300E06FFCEFBC9C9F40F2BAA56FA5F490055A33
S11300F02AF75C936B6CF9676DC11BFCE0E40D4758
S1130100FEF520E6B500D0ED902E0300943577057A
S11301100080841E080000204E0A000000C80C3332
S11301203333330F986E12831141EF8D2114893BC1
S1130130E65516CFFEE6DB18D1844B381BF77C1D41
S1130140901DA4BBE424203284725E228100C9F194
S113015024ECA1E53D2711241FBECFE5D4E0DEBF8A
S1130160CDBF11E0A0E6B0E0EEEBF9E202C00590ED
S11301700D92AE33B107D9F721E0AEE3B1E001C08F
S11301801D92AF39B207E1F70E94480D0C94DD14BB
S113019037CF94EA96BF06B607FEFDCF91B1987F9C
S11301A09830C9F7880F83B984E886BF06B607FE7E
S11301B0FDCF81B1887F8831C9F763B984E886BFF0
S11301C006B607FEFDCF81B1887F8832C9F784E97E
S11301D086BF0895CF93DF93C82F8FE891E00197EE
S11301E0F1F700C000006C2F87E2D3DFDC2FD8606A
S11301F06D2F87E2CEDF6C2F6C6087E2CADF95E05B
S11302009A95F1F700006D2F87E2C3DFDF91CF915C
S11302100895CF93C82F807FDDDF8C2F8295807F58
S1130220D9DFCF910895CF93DF93C82F8FE891E062
S11302300197F1F700C000006C2F87E2AADFDC2FE2
S1130240D9606D2F87E2A5DF6C2F6D6087E2A1DF97
S113025095E09A95F1F700006D2F87E29ADFDF9120
S1130260CF910895CF93C82F807FDDDF8C2F8295A7
S1130270807FD9DFCF9108958AE080B911B82FEF3C
S113028083EF91E0215080409040E1F700C00000EE
S113029088E2BFDF87EC90E00197F1F700C000002F
S11302A08CE0B7DF87EC90E00197F1F700C0000025
S11302B081E0AFDF8FE39FE10197F1F700C0000019
S11302C086E0A7DF87EC90E00197F1F700C000001B
S11302D00895EF92FF920F931F93CF93DF93082F0C
S11302E07B0197DFF7018081882389F0E70110E023
S11302F00E191F0998012C0F3D1F2039310511F4E7
S113030080EC87DF8991AEDF98819111F3CFDF9183
S1130310CF911F910F91FF90EF9008957F928F924C
S11303209F92AF92BF92CF92DF92EF92FF920F9380
S11303301F93CF93DF932FEF85EA9EE021508040F7
S11303409040E1F700C0000080E090E00E94C814F3
S1130350282F30E0309396012093950124363105FF
S11303609CF01F928F938AEC90E09F938F9381E887
S113037091E09F938F930E944B140F900F900F90D6
S11303800F900F900F9012C01F928F9383ED90E007
S11303909F938F9381E891E09F938F930E944B14D6
S11303A00F900F900F900F900F900F9061E871E0F5
S11303B080E88FDF8FE087BB81E090E09093C700F7
S11303C08093C600109275011092740177247A9478
S11303D00F2EFFEE8F2EF02D0F2EF3EDEF2EF0E00B
S11303E0FF2EF02D0AEC10E00F2EF6E9CF2ED12CC3
S11303F0F02DAA24A394B12CC2E0D0E00F2EFFE08C
S11304009F2EF02D25E32A95F1F70000B49BEEC052
S11304108091C6009091C700019709F0E7C0B59B91
S113042005C0B0927501A092740104C0D093750107
S1130430C093740185E38A95F1F70000B5996AC009
S11304408091740190917501029709F063C0109234
S1130450C7001092C60077BA8091950190919601D9
S113046087399105BCF4181619067CF4843191057A
S113047034F4019690939601809395010FC00596EC
S1130480909396018093950109C0B0929601A09231
S1130490950104C0D0929601C09295018FE39CE926
S11304A00197F1F700C000008091950190919601A9
S11304B0843691058CF09F938F931F930F9381E85B
S11304C091E09F938F930E944B140F900F900F9085
S11304D00F900F900F9010C09F938F93FF92EF9205
S11304E081E891E09F938F930E944B140F900F909B
S11304F00F900F900F900F9061E871E080E8E9DEB3
S11305009FEF29EC88E0915020408040E1F700C043
S1130510000087BAB59B6AC08091740190917501FF
S1130520019709F063C01092C7001092C60077BA11
S1130530809195019091960187399105BCF4181624
S113054019067CF48531910534F401979093960152
S1130550809395010FC00597909396018093950120
S113056009C0B0929601A092950104C0D092960160
S1130570C09295018FE39CE90197F1F700C0000058
S11305808091950190919601843691058CF09F930A
S11305908F931F930F9381E891E09F938F930E9411
S11305A04B140F900F900F900F900F900F9010C05E
S11305B09F938F93FF92EF9281E891E09F938F93A3
S11305C00E944B140F900F900F900F900F900F906C
S11305D061E871E080E87DDE9FEF29EC88E09150CE
S11305E020408040E1F700C0000087BAB49905C0FC
S11305F0B092C700A092C60097BAB69B03CF609191
S1130600950180E090E00E94D01480E090E00E9488
S1130610C81490E090937B0180937A01DF91CF918D
S11306201F910F91FF90EF90DF90CF90BF90AF900C
S11306309F908F907F9008957F928F929F92AF9218
S1130640BF92CF92DF92EF92FF920F931F93CF93BB
S1130650DF932FEF85EA9EE0215080409040E1F740
S113066000C0000081E090E00E94C814282F30E010
S113067030939C0120939B011F928F938DED90E00A
S11306809F938F9381E891E09F938F930E944B14E3
S113069061E871E088E81DDE8FE087BB0F900F9062
S11306A00F900F900F900F9081E090E077247A9450
S11306B00F2EFDEDCF2EF0E0DF2EF02D0F2EF1E802
S11306C0EF2EF1E0FF2EF02D0FEE912C812C0F2E4A
S11306D0F4E1AF2EB12CF02DD1E0C0E01FE025E312
S11306E02A95F1F70000B49B8BC08130910509F085
S11306F087C0B5999CC0A3C077BA80919B019091A3
S11307009C018531910574F41816190634F4019688
S113071090939C0180939B0109C0D0939B01C0934B
S11307209C0104C0B0929C01A0929B018FE39CE9C0
S11307300197F1F700C0000080919C018F93809194
S11307409B018F93DF92CF92FF92EF920E944B1402
S1130750B70188E8BEDD9FEF29EC88E09150204086
S11307608040E1F700C0000007BB86B30F900F90F4
S11307700F900F900F900F90892D982D41C077BA4C
S113078080919B0190919C018531910574F4181618
S1130790190634F4019790939C0180939B0109C03E
S11307A0D0939B01C0939C0104C0B0929C01A09281
S11307B09B018FE39CE90197F1F700C00000809151
S11307C09C018F9380919B018F93DF92CF92FF9234
S11307D0EF920E944B14B70188E87BDD9FEF29EC70
S11307E088E0915020408040E1F700C0000007BB42
S11307F00F900F900F900F900F900F90892D982DC0
S1130800B49903C017BB8D2F9C2FB69B68CF609102
S11308109B0181E090E00E94D01481E090E00E946E
S1130820C81490E0909398018093970110C025E339
S11308302A95F1F7000026B3B599A1CFE1CF25E3BE
S11308402A95F1F70000B59B57CF26B3D9CFDF9196
S1130850CF911F910F91FF90EF90DF90CF90BF90B9
S1130860AF909F908F907F9008955F926F927F9248
S11308708F929F92AF92BF92CF92DF92EF92FF92AC
S11308800F931F93CF93DF932FEF85EA9EE02150C0
S113089080409040E1F700C0000082E090E00E94B8
S11308A0C814282F30E030939A01209399011F92A5
S11308B08F9387EE90E09F938F9381E891E09F93CD
S11308C08F930E944B1461E871E080EC02DD8FE0AD
S11308D087BB0F900F900F900F900F900F9081E0B7
S11308E090E055245A940F2EF7EEEF2EF0E0FF2EF1
S11308F0F02D01E811E00F2EFFEE6F2EF02D712C7C
S1130900812C0F2EF8ECAF2EB12CF02D0F2EF5E02C
S1130910CF2ED12CF02D0F2EFFE09F2EF02DD1E005
S1130920C0E025E32A95F1F70000B49B8FC0813025
S1130930910509F08BC0B599A0C0A7C057BA8091A2
S1130940990190919A01893C910574F4853091053F
S113095034F0059690939A018093990109C0D0923E
S11309609A01C092990104C0B0929A01A09299018F
S11309708FE39CE90197F1F700C0000080919A0190
S11309808F93809199018F93FF92EF921F930F930E
S11309900E944B148CE03DDCB80180EC9ADC9FEFA4
S11309A029EC88E0915020408040E1F700C000002D
S11309B067BA86B30F900F900F900F900F900F901F
S11309C0872D982D43C057BA8091990190919A012F
S11309D0893C910574F48530910534F00597909322
S11309E09A018093990109C0D0929A01C092990109
S11309F004C0B0929A01A09299018FE39CE90197F7
S1130A00F1F700C0000080919A018F9380919901C1
S1130A108F93FF92EF921F930F930E944B148CE0DD
S1130A20F8DBB80180EC55DC9FEF29EC88E09150AD
S1130A3020408040E1F700C0000067BA0F900F909B
S1130A400F900F900F900F90872D982DB49903C09D
S1130A5097BA8D2F9C2FB69B64CF6091990182E049
S1130A6090E00E94D01482E090E00E94C81490E0CC
S1130A70909379018093780110C025E32A95F1F7CA
S1130A80000026B3B5999FCFE1CF25E32A95F1F76E
S1130A900000B59B53CF26B3D9CFDF91CF911F91DF
S1130AA00F91FF90EF90DF90CF90BF90AF909F9009
S1130AB08F907F906F905F9008951ABA8FEF84BBE8
S1130AC080E485BB87B987E886B9369A349BFECF24
S1130AD084B165B170E0762F6627680F711D072E0B
S1130AE0000C880B990B0C944E0E0895BF92CF9274
S1130AF0DF92EF92FF920F931F93CF93DF93809136
S1130B006E0190916F01019759F461EF70E089ECE7
S1130B10E0DB82E090E090936B0180936A010AC06D
S1130B2066EF70E089ECD5DB81E090E090936B0197
S1130B3080936A012FEF85EA9EE021508040904027
S1130B40E1F700C00000109267011092660180E492
S1130B5085BB8FE087BBCAE6D1E001E010E0689472
S1130B60BB24B6F80F2EFEE6CF2EF1E0DF2EF02DDB
S1130B706894EE24E1F8F12C86B3807F9881892B68
S1130B8080937C018233D9F01CF4813331F04CC062
S1130B908134E1F1823451F147C0F0926B01E0926B
S1130BA06A0161EF70E089EC94DBEFEFF2E527E096
S1130BB0E150F0402040E1F700C0000035C0109340
S1130BC06B0100936A016CEF70E089EC82DB15BA6B
S1130BD010926F0110926E018FEF92E5E7E0815061
S1130BE09040E040E1F700C000001EC010936F0188
S1130BF000936E011093670100936601B5BAF60184
S1130C00608183E090E00E94D0140EC010926F01C6
S1130C1010926E0160E083E090E00E94D014109383
S1130C2067010093660115BA80916601909167018E
S1130C30019709F0A1CF81E090E09093C5008093E3
S1130C40C4001092670110926601FFEF22E587E06D
S1130C50F15020408040E1F700C00000DF91CF91C7
S1130C601F910F91FF90EF90DF90CF90BF90089568
S1130C70CF93DF93C5E0D0E08FE39CE90197F1F7D0
S1130C8000C00000F9DA8CE0C4DA60E670E081E8C4
S1130C9020DB6BEF70E080EC1CDB219769F79FEFA2
S1130CA02BE782E9915020408040E1F700C000002A
S1130CB0DF91CF910895009741F0EFE9FFE031977C
S1130CC0F1F700C000000197C1F708951F920F9239
S1130CD00FB60F9211242F933F934F935F936F930B
S1130CE07F938F939F93AF93BF93EF93FF9381E091
S1130CF020916C0130916D012130310509F080E0C3
S1130D0020917A0130917B0191E0283031050CF477
S1130D1090E0992351F1882341F18FEC97E00197FA
S1130D20F1F700C0000080E285BB209156013091AC
S1130D305701409158015091590160915E017091A1
S1130D405F0180916001909161010E94020F73D74D
S1130D50CB01B1DF15BA8091780190917901ABDFB5
S1130D6010926D0110926C0120C091E02830310581
S1130D700CF090E09923C9F08823B9F08FEC97E048
S1130D800197F1F700C0000080E285BB80917A01F1
S1130D9090917B0190DF15BA80917801909179014F
S1130DA08ADF10926D0110926C01FF91EF91BF9157
S1130DB0AF919F918F917F916F915F914F913F91EF
S1130DC02F910F900FBE0F901F9018952F923F9266
S1130DD04F925F926F927F928F929F92AF92BF9247
S1130DE0CF92DF92EF92FF920F931F93CF93DF93F3
S1130DF064DED62EC72EB82EA92E8FEB87BBC8EE85
S1130E00D3E05BDE609352017093530180935401ED
S1130E109093550120917D0130917E0140917F0195
S1130E205091800138D660937D0170937E01809348
S1130E307F0190938001219721F720E030E04AE779
S1130E4054E491D660934A0170934B0180934C0112
S1130E5090934D0110927D0110927E0110927F01BA
S1130E60109280019D2C8C2C7B2C6A2CC8EED3E034
S1130E7024DEE1D6072E000C880B990B0FD7E62E43
S1130E80F72E082F192F2D2D3C2D4B2D5A2DB6D76B
S1130E90181624F4DE2CCF2CB02EA12E292D382D9B
S1130EA0472D562D6E2D7F2D802F912F58D68823B8
S1130EB024F49E2C8F2C702E612E20914A013091A7
S1130EC04B0140914C0150914D016E2D7F2D802F8F
S1130ED0912FE0D52091460130914701409148017E
S1130EE050914901D8D5609346017093470180938E
S1130EF0480190934901219709F0BACF20E030E0EE
S1130F004AE754E430D620E030E046E153E42BD6FF
S1130F101B012C01609342017093430180934401AF
S1130F209093450110924601109247011092480196
S1130F3010924901292D382D472D562D6D2D7C2DCC
S1130F408B2D9A2DA7D520E030E040E752E40BD654
S1130F5060933E0170933F0180934001909341015F
S1130F60A201910197D560934E0170934F01809334
S1130F705001909351015FD67093690160936801A9
S1130F802091720130917301232B79F41616170600
S1130F9064F4625E7F4F709371016093700181E02D
S1130FA090E09093730180937201DF91CF911F9130
S1130FB00F91FF90EF90DF90CF90BF90AF909F90F4
S1130FC08F907F906F905F904F903F902F900895F7
S1130FD0F89480E48BBF85B7836085BF78940895C7
S1130FE06F927F928F929F92AF92BF92CF92DF9235
S1130FF0EF92FF920F931F93CF93DF932FEF35EA76
S11310008EE0215030408040E1F700C0000034D928
S11310108CE0FFD861E071E08EEC5BD9D9DF81E030
S113102090E09093C5008093C4009093C700809390
S1131030C60010927501109274010F2EF4E0CF2EA9
S1131040F1E0DF2EF02DC1E8D1E00F2EFDE0EF2E10
S1131050F1E0FF2EF02D06E111E06894662466F8B5
S11310606894AA24A2F8B12C0F2EF5E08F2E912CAF
S1131070F02D0F2EFFE07F2EF02D80E090E00E94F7
S1131080C814282F30E030937B0120937A011F92FB
S11310908F93DF92CF92DF93CF930E944B14BE01C4
S11310A080E817D981E090E00E94C814282F30E02E
S11310B030939801209397011F928F93FF92EF92A0
S11310C0DF93CF930E944B14BE0188E802D982E0DB
S11310D090E00E94C814282F30E0309379012093C7
S11310E078011F928F931F930F93DF93CF930E94E6
S11310F04B14BE0180ECEDD883E090E00E94C8144C
S113110090E090936F0180936E012DB73EB72E5EF1
S11311103F4F0FB6F8943EBF0FBE2DBF019729F481
S113112065BA6FE171E089ECD4D880916E01909139
S11311306F01892B29F415BA64E271E089ECC9D8EE
S113114026B320748091C4009091C500822B9093A3
S11311509E0180939D0183349105A9F13CF481346F
S1131160910569F082349105E1F052C0843491050F
S113117009F439C08534910509F43BC049C08FE3B3
S113118091E00197F1F700C0000069E271E080E8A6
S1131190A0D882E090E09093C5008093C400BED8AC
S11311A037C08FE391E00197F1F700C000006EE2D1
S11311B071E088E88ED883E090E09093C500809336
S11311C0C4003ADA25C08FE391E00197F1F700C03B
S11311D0000063E371E080EC7CD8B092C500A0927B
S11311E0C40043DB15C09092C5008092C4007EDC2D
S11311F00FC081E090E09093C5008093C4009FEFFE
S113120027E833E1915020403040E1F700C000006E
S1131210B49B54C08091C6009091C700019709F017
S11312204DC0B59B07C081E090E090937501809319
S1131230740106C082E090E090937501809374017C
S113124085E38A95F1F70000B5990CC0809174018B
S113125090917501029731F41092C7001092C60064
S113126086B32CC0B59B2AC08091740190917501FE
S1131270019721F580916E0190916F01019739F4E6
S11312808AEF90E0909363018093620106C080E04E
S11312909DE790936301809362011092C7001092BE
S11312A0C6008FEF87BB81E090E090937701809335
S11312B07601109265011092640133C0B49907C09D
S11312C081E090E09093C7008093C60077BAB79B03
S11312D0D4CE80916E0190916F01019739F48AEF19
S11312E090E0909363018093620106C080E09DE7E3
S11312F090936301809362018FEF87BB81E090E05C
S113130090937701809376011092650110926401A5
S11313109FEF21EE34E0915020403040E1F700C0CF
S11313200000DF91CF911F910F91FF90EF90DF901C
S1131330CF90BF90AF909F908F907F906F900895C3
S11313404F925F926F927F92BF92CF92DF92EF9211
S1131350FF920F931F93CF93DF930E943C018CE085
S11313600E94090135DE80E090E00E94C814282F15
S113137030E030937B0120937A011F928F9384E0B5
S113138091E09F938F93C1E8D1E0DF93CF930E94C4
S11313904B14BE0180E80E94690181E090E00E9444
S11313A0C814282F30E030939801209397011F929E
S11313B08F938DE091E09F938F93DF93CF930E945F
S11313C04B14BE0188E80E94690182E090E00E940B
S11313D0C814282F30E030937901209378011F92AC
S11313E08F9386E191E09F938F93DF93CF930E9435
S11313F04B14BE0180EC0E94690183E090E00E94DE
S1131400C81490E090936F0180936E012DB73EB79E
S11314102E5E3F4F0FB6F8943EBF0FBE2DBF01970F
S113142039F480E485BB6FE171E089EC0E946901C5
S113143080916E0190916F01892B31F415BA64E2A9
S113144071E089EC0E94690181E090E0909377015A
S113145080937601109265011092640180916E016F
S113146090916F01019739F48AEF90E090936301B2
S11314708093620106C080E09DE7909363018093AE
S113148062010F2EFFEBEF2EF02DC8EED3E068942F
S1131490CC24C2F80F2EFFE0DF2EF02D01E010E087
S11314A00F2EFFE3FF2EF02DBB24BA94E7BA82C1BE
S11314B080916401909165010196909365018093F8
S11314C0640168E371E08EEC0E9469017FDC809125
S11314D07A0190917B0108970CF08CC080916E0189
S11314E090916F01019709F046C180917601909126
S11314F07701019709F03FC18091680190916901DA
S1131500833091050CF437C1209170013091710141
S1131510821793070CF02FC1109265011092640199
S113152055DC80916E0190916F01019709F023C100
S11315308091760190917701019709F01CC1809107
S1131540680190916901833091050CF414C12091D4
S1131550700130917101821793070CF00CC16BE399
S113156071E08EEC0E946901C5BA8FE19EE4019797
S1131570F1F700C0000015BA8FE19EE40197F1F77E
S113158000C00000C5BA8FE19EE40197F1F700C0E6
S1131590000015BA8FE19EE40197F1F700C0000046
S11315A0809197019091980118161906C4F480E06F
S11315B090E0789410936D0100936C012FEF31EE5D
S11315C044E0215030404040E1F700C00000019663
S11315D020919701309198018217930754F3F8945E
S11315E08FEF9DEB2AE0815090402040E1F700C04E
S11315F00000C1C06091C8007091C900CE01C3D77A
S1131600072E000C880B990B49D360935A017093F1
S11316105B0180935C0190935D0120E030E040E049
S11316205FE3F0D32B013C016093560170935701A3
S1131630809358019093590180E090E00E94C8146F
S1131640682F70E080E090E029D3A30192018BD24F
S113165060935E0170935F018093600190936101D8
S113166080916E0190916F01019709F084C080917F
S1131670760190917701019709F07DC0809168010E
S113168090916901833091050CF475C0209170012B
S113169030917101821793070CF06DC010926501AF
S11316A01092640193DB80916E0190916F01019718
S11316B009F061C08091760190917701019709F05A
S11316C05AC08091680190916901833091050CF4AE
S11316D052C02091700130917101821793070CF070
S11316E04AC06BE371E08EEC0E946901C5BA8FE1D8
S11316F09EE40197F1F700C0000015BA8FE19EE463
S11317000197F1F700C00000C5BA8FE19EE401978C
S1131710F1F700C0000015BA8FE19EE40197F1F7DC
S113172000C0000080919701909198011816190645
S1131730C4F480E090E0789410936D0100936C0100
S11317402FEF31EE44E0215030404040E1F700C03B
S11317500000019620919701309198018217930718
S113176054F3F8948FEF9DEB2AE081509040204091
S1131770E1F700C00000B69B0AC08091620190911D
S113178063018C599F4F909365018093640120916C
S11317906401309165018091620190916301821727
S11317A0930744F41092770110927601D7BA15BAD0
S11317B017DC44C180916E0190916F01019709F487
S11317C077CE3CC1F7BA809164019091650101968E
S11317D0909365018093640168E371E08EEC0E944C
S11317E0690180917A0190917B0108970CF069C09E
S11317F08091760190917701019709F000C1809161
S11318006E0190916F01892B09F0F9C0B79BF7C065
S11318103FEF40E782E0315040408040E1F700C0B4
S113182000001092650110926401B7BA6BE371E095
S11318308EEC0E946901C5BA8FE39CE90197F1F728
S113184000C0000015BA8FE39CE90197F1F700C0CE
S11318500000C5BA8FE39CE90197F1F700C00000CE
S113186015BA8FE39CE90197F1F700C0000080915D
S113187097019091980118161906C4F480E090E03D
S1131880789410936D0100936C012FEF31EE44E0D6
S1131890215030404040E1F700C000000196209103
S11318A09701309198018217930754F3F8948FEFBE
S11318B090E722E0815090402040E1F700C0000012
S11318C09EC06091C8007091C900CE015CD6072EFD
S11318D0000C880B990BE2D160935A0170935B0161
S11318E080935C0190935D0120E030E040E05FE391
S11318F089D22B013C016093560170935701809368
S113190058019093590180E090E00E94C814682F18
S113191070E080E090E0C2D1A301920124D16093F1
S11319205E0170935F0180936001909361018091E7
S1131930760190917701019709F061C080916E0161
S113194090916F01892B09F05AC0B79B58C03FEFA3
S113195040E782E0315040408040E1F700C00000A1
S11319601092650110926401B7BA6BE371E08EECDA
S11319700E946901C5BA8FE39CE90197F1F700C0A1
S1131980000015BA8FE39CE90197F1F700C000004D
S1131990C5BA8FE39CE90197F1F700C0000015BABE
S11319A08FE39CE90197F1F700C000008091970153
S11319B09091980118161906C4F480E090E0789488
S11319C010936D0100936C012FEF31EE44E0215030
S11319D030404040E1F700C000000196209197019B
S11319E0309198018217930754F3F8948FEF90E79E
S11319F022E0815090402040E1F700C00000B69BF7
S1131A000AC080916201909163018C599F4F909319
S1131A106501809364012091640130916501809196
S1131A206201909163018217930744F41092770145
S1131A3010927601D7BA15BAD3DA07C080916E0135
S1131A4090916F01892B09F4BDCEB69B2FCDC8DAD6
S1131A50DF91CF911F910F91FF90EF90DF90CF9086
S1131A60BF907F906F905F904F9008958FEF84BBED
S1131A7015BAF89480EF81BB1ABA109273011092D0
S1131A8072011092710110927001F2D859CC08952C
S1131A90EDDFFFCF5058BB27AA270ED075C166D102
S1131AA030F06BD120F031F49F3F11F41EF45BC190
S1131AB00EF4E095E7FB51C1E92F77D180F3BA1713
S1131AC0620773078407950718F071F49EF58FC1B8
S1131AD00EF4E0950B2EBA2FA02D0B01B901900145
S1131AE00C01CA01A0011124FF27591B99F0593F89
S1131AF050F4503E68F11A16F040A22F232F342FD1
S1131B004427585FF3CF469537952795A795F0401E
S1131B105395C9F77EF41F16BA0B620B730B840B33
S1131B20BAF09150A1F0FF0FBB1F661F771F881FEB
S1131B30C2F70EC0BA0F621F731F841F48F4879543
S1131B4077956795B795F7959E3F08F0B3CF939532
S1131B50880F08F09927EE0F979587950895D9D0A7
S1131B6008F481E008950CD00FC107D140F0FED0F5
S1131B7030F021F45F3F19F0F0C0511139C1F3C0C6
S1131B8014D198F39923C9F35523B1F3951B550B3D
S1131B90BB27AA2762177307840738F09F5F5F4F3C
S1131BA0220F331F441FAA1FA9F333D00E2E3AF07D
S1131BB0E0E830D091505040E695001CCAF729D097
S1131BC0FE2F27D0660F771F881FBB1F26173707E6
S1131BD04807AB07B0E809F0BB0B802DBF01FF2716
S1131BE093585F4F2AF09E3F510568F0B6C000C17C
S1131BF05F3FECF3983EDCF3869577956795B79550
S1131C00F7959F5FC9F7880F911D9695879597F96A
S1131C100895E1E0660F771F881FBB1F62177307E3
S1131C208407BA0720F0621B730B840BBA0BEE1FF8
S1131C3088F7E095089504D06894B111D9C0089547
S1131C40BCD088F09F5790F0B92F9927B751A0F0D6
S1131C50D1F0660F771F881F991F1AF0BA95C9F73C
S1131C6012C0B13081F0C3D0B1E00895C0C0672F75
S1131C70782F8827B85F39F0B93FCCF386957795EC
S1131C806795B395D9F73EF49095809570956195D5
S1131C907F4F8F4F9F4F0895E89409C097FB3EF400
S1131CA090958095709561957F4F8F4F9F4F9923A5
S1131CB0A9F0F92F96E9BB279395F6958795779523
S1131CC06795B795F111F8CFFAF4BB0F11F460FFE3
S1131CD01BC06F5F7F4F8F4F9F4F16C0882311F03B
S1131CE096E911C0772321F09EE8872F762F05C04F
S1131CF0662371F096E8862F70E060E02AF09A95EA
S1131D00660F771F881FDAF7880F9695879597F9DE
S1131D100895990F0008550FAA0BE0E8FEEF161678
S1131D201706E807F907C0F012161306E407F507CB
S1131D3098F0621B730B840B950B39F40A2661F03F
S1131D40232B242B252B21F408950A2609F4A140E2
S1131D50A6958FEF811D811D089597F99F6780E8EF
S1131D6070E060E008959FEF80EC089500240A94E9
S1131D701616170618060906089500240A94121662
S1131D801306140605060895092E0394000C11F495
S1131D90882352F0BB0F40F4BF2B11F460FF04C042
S1131DA06F5F7F4F8F4F9F4F089557FD9058440F9B
S1131DB0551F59F05F3F71F04795880F97FB991FA6
S1131DC061F09F3F79F08795089512161306140663
S1131DD0551FF2CF4695F1DF08C0161617061806F0
S1131DE0991FF1CF86957105610508940895E894CB
S1131DF0BB2766277727CB0197F908958ADF08F474
S1131E008FEF08950BD0C0CFB1DF28F0B6DF18F004
S1131E10952309F0A2CFA7CF1124EACFC6DFA0F300
S1131E20959FD1F3950F50E0551F629FF001729F6B
S1131E30BB27F00DB11D639FAA27F00DB11DAA1F8A
S1131E40649F6627B00DA11D661F829F2227B00DD7
S1131E50A11D621F739FB00DA11D621F839FA00D62
S1131E60611D221F749F3327A00D611D231F849FB2
S1131E70600D211D822F762F6A2F11249F57504009
S1131E808AF0E1F088234AF0EE0FFF1FBB1F661FA4
S1131E90771F881F91505040A9F79E3F510570F05D
S1131EA05CCFA6CF5F3FECF3983EDCF38695779545
S1131EB06795B795F795E7959F5FC1F7FE2B880F58
S1131EC0911D9695879597F90895A0E1B0E0EAE60B
S1131ED0FFE06CC37C011B016A01FC0117821682BE
S1131EE0838181FF2AC39E012F5F3F4F3901F70190
S1131EF09381F10193FD859193FF81911F018823C3
S1131F0009F417C3853239F493FD859193FF8191C8
S1131F101F01853231F4B70190E081D45601650187
S1131F20E6CF10E0512C912CFFE1F915D8F08B325B
S1131F3079F038F4803279F08332A1F4F92DF0612C
S1131F402EC08D3261F0803369F4292D21602DC0BB
S1131F50392D3260932E892D8460982E2AC0E92D64
S1131F60E86015C097FC2DC020ED280F2A3088F4B6
S1131F7096FE06C03AE0139F200D1124122F19C0BB
S1131F808AE0589E200D1124522EE92DE0629E2EE7
S1131F9010C08E3231F496FCCCC2F92DF0649F2E21
S1131FA008C08C3621F4292D2068922E02C0883670
S1131FB041F4F10193FD859193FF81911F018111FA
S1131FC0B3CF9BEB980F933020F4992D9061805EF2
S1131FD007C09BE9980F933008F059C1992D9F7E53
S1131FE096FF16E09F73992E853619F49064992E06
S1131FF008C0863621F4392F3068932E02C011119F
S1132000115097FE07C01C3350F444244394410EEE
S113201027E00BC0183038F027E017E005C027E0B0
S11320209CE3492E02C0212F412C560184E0A80EC6
S1132030B11CF6016081718182819381042DA30119
S113204000D36C01F981FC87F0FF02C0F3FF06C0E6
S113205091FC06C092FE06C000E205C00DE203C07A
S11320600BE201C000E08C858C7019F0011143C2B1
S113207080C297FE10C04C0CFC85F4FF04C08A811A
S1132080813309F44A94141474F528E0241578F57E
S113209088E0482E2CC096FC2AC0812F90E08C1535
S11320A09D059CF03CEFC3163FEFD30674F0892DD9
S11320B08068982E0AC0E2E0F0E0EC0FFD1FE10F0B
S11320C0F11D8081803319F411501111F4CF97FE62
S11320D00EC044244394410E812F90E0C816D906C3
S11320E02CF41C1904C04424439401C010E097FE4E
S11320F006C01C141D0434F4C601019605C085E015
S113210090E002C081E090E001110196112331F0CA
S1132110212F30E02F5F3F4F820F931F252D30E09A
S11321208217930714F4581A01C0512C892D897011
S113213041F4552031F0B70180E290E070D35A9415
S1132140F8CF002321F0B701802F90E068D393FCEF
S113215008C0552031F0B70180E390E060D35A9471
S1132160F8CF97FE4AC04601D7FE02C0812C912CBD
S1132170C60188199909F301E80FF91FFE87ED8755
S1132180960124193109388B2F87012F10E01195FE
S1132190019511093FEF8316930621F4B7018EE2EE
S11321A090E03DD3C814D9044CF08F8598898815E4
S11321B0990524F4ED85FE85818101C080E3F1E079
S11321C08F1A91082D853E852F5F3F4F3E872D87BF
S11321D08016910624F0B70190E021D3DBCFC81418
S11321E0D90441F49A81963320F4953319F43C854B
S11321F034FF81E3B70190E048C08A81813319F04C
S11322009C859F7E9C87B70190E009D3111105C07E
S113221094FC16C085E690E015C0B7018EE290E00C
S1132220FED21E5F82E001E0080FF301E80FF11D0A
S11322308081B70190E0F3D2802F0113F4CFE8CF6F
S113224085E490E0B701EBD2D7FC06C0C114D104F9
S113225041F4EC85E4FF05C0D194C194D1088DE22A
S113226001C08BE2B70190E0DAD280E32AE0C21623
S1132270D1042CF08F5FFAE0CF1AD108F7CFB70161
S113228090E0CDD2B701C601C096C9D249C1833608
S113229031F0833779F0833509F052C01FC05601FD
S11322A032E0A30EB11CF6018081898301E010E0C5
S11322B0630111C05601F2E0AF0EB11CF601C080FB
S11322C0D18096FE03C0612F70E002C06FEF7FEFF4
S11322D0C6019AD28C01F92DFF7713C0560122E072
S11322E0A20EB11CF601C080D18096FE03C0612FFE
S11322F070E002C06FEF7FEFC6017BD28C01F92D35
S1132300F0689F2EF3FD18C0852D90E0081719077B
S113231098F4B70180E290E082D25A94F5CFF601A6
S113232097FC859197FE81916F01B70190E077D278
S113233051105A94015011090115110581F7F0C08B
S1132340843611F0893659F5560197FE09C024E008
S1132350A20EB11CF60160817181828193810AC051
S1132360F2E0AF0EB11CF60160817181072E000C02
S1132370880B990BF92DFF769F2E97FF09C0909536
S11323808095709561957F4F8F4F9F4FF0689F2E7A
S11323902AE030E0A3019ED2C82EC6183EC0092D03
S11323A0853721F40F7E2AE030E01DC0097F8F3687
S11323B091F018F4883559F0BCC0803719F088378B
S11323C011F0B7C0006104FF09C0046007C094FEA7
S11323D008C0066006C028E030E005C020E130E017
S11323E002C020E132E0560107FF09C084E0A80ED4
S11323F0B11CF601608171818281938108C0F2E091
S1132400AF0EB11CF6016081718180E090E0A30100
S113241061D2C82EC6180F77902E96FE0BC0092DD8
S11324200E7FC11650F494FE0AC092FC08C0092D18
S11324300E7E05C0DC2C092D03C0DC2C01C0D12E7E
S113244004FF0DC0FE01EC0DF11D8081803311F4F9
S1132450097E09C002FF06C0D394D39404C0802F20
S1132460867809F0D39403FD10C000FF06C01C2D2C
S1132470D51478F4150D1D190CC0D51450F4B701FA
S113248080E290E0CCD1D394F8CFD51410F45D1849
S113249001C0512C04FF0FC0B70180E390E0BFD10D
S11324A002FF16C001FD03C088E790E002C088E582
S11324B090E0B7010CC0802F867851F001FF02C074
S11324C08BE201C080E207FD8DE2B70190E0A7D165
S11324D0C11630F4B70180E390E0A1D11150F8CFD8
S11324E0CA94F301EC0DF11D8081B70190E097D1FE
S11324F0C110F6CF15C0F4E0F51550F584E0581A74
S113250093FE1EC0011125C02C8523FF27C004E5BE
S113251010E0392D3071932EF8018491811121C07E
S1132520552009F4FCCCB70180E290E078D15A94AC
S1132530F7CFF7018681978123C08FEF9FEF20C0EB
S1132540B70180E290E06BD15A945110F9CFDACF01
S1132550512CB701802F90E062D1D6CF08E510E06E
S1132560D8CF91108052B70190E059D10F5F1F4F1F
S1132570D3CF23E0251510F483E0C1CF512CC4CF71
S11325806096E2E12FC097FB072E16F4009406D064
S113259077FD08D042D007FC05D03EF49095819594
S11325A09F4F0895709561957F4F08952F923F92A4
S11325B04F925F926F927F928F929F92AF92BF924F
S11325C0CF92DF92EF92FF920F931F93CF93DF93FB
S11325D0CDB7DEB7CA1BDB0B0FB6F894DEBF0FBE58
S11325E0CDBF09942A88398848885F846E847D84A5
S11325F08C849B84AA84B984C884DF80EE80FD80A7
S11326000C811B81AA81B981CE0FD11D0FB6F8941C
S1132610DEBF0FBECDBFED010895AA1BBB1B51E168
S113262007C0AA1FBB1FA617B70710F0A61BB70B3E
S1132630881F991F5A95A9F780959095BC01CD01E3
S11326400895283008F027E03327DA01990F311D67
S113265087FD916000966105710539F432602E5F43
S11326603D9330E32A95E1F708959F3F30F0803899
S11326707105610509F03C5F3C5F3D93913008F0C2
S11326808068911DDF93CF931F930F93FF92EF9276
S1132690192F987F9695E92F96959695E90FFF2720
S11326A0EA54FF4F99273327EE24FF24A701E701BB
S11326B005900894079428F4360FE71EF81E491F66
S11326C0511D660F771F881F991F0694A1F7059067
S11326D0079428F4E70EF81E491F561FC11D770FF3
S11326E0881F991F661F0694A1F70590079428F484
S11326F0F80E491F561FC71FD11D880F991F661F4B
S1132700771F0694A1F70590079420F4490F561FEC
S1132710C71FD81F990F661F771F881F0694A9F734
S113272084911095177041F0D695C79557954795A4
S1132730F794E7941A95C1F7ECE5F0E068941590E6
S1132740159135916591959105907FE27395E11806
S1132750F10A430B560BC90BD009C0F7E10CF11E6B
S1132760431F561FC91FD01D7EF4703311F48A9580
S1132770E6CFE894015030F0080F0AF4002702175E
S113278008F4202F2395022F7A3328F079E37D93E0
S11327902A95E9F710C07D932A9589F606949795B2
S11327A06795379517951794E118F10A430B560B63
S11327B0C90BD00998F023957E9173957A3308F06C
S11327C070E37C932013B8F77E9170617D9330F0B1
S11327D0839571E37D9370E32A95E1F71124EF90DB
S11327E0FF900F911F91CF91DF91992787FD9095CD
S11327F00895FC010590615070400110D8F7809550
S113280090958E0F9F1F0895FC01615070400190B8
S11328100110D8F7809590958E0F9F1F08950F9300
S11328201F93CF93DF93FB01238121FD03C08FEF1F
S11328309FEF2CC022FF16C0468157812481358129
S11328404217530744F4A081B1819D012F5F3F4F8C
S1132850318320838C93268137812F5F3F4F3783C9
S1132860268314C08B01EC01FB010084F185E02D6B
S11328700995892BE1F6D80116968D919C911797AD
S1132880019617969C938E931697CE01DF91CF9164
S11328901F910F910895AEE0B0E0E0E5F4E194CE2D
S11328A00D891E8986E08C831A8309838FEF9FE745
S11328B09E838D83AE01475E5F4F6F89788DCE0115
S11328C0019603DBEF81F885E00FF11F10822E964D
S11328D0E4E096CEFA01AA27283051F1203181F1A3
S11328E0E8946F936E7F6E5F7F4F8F4F9F4FAF4F14
S11328F0B1E03ED0B4E03CD0670F781F891F9A1F27
S1132900A11D680F791F8A1F911DA11D6A0F711DDA
S1132910811D911DA11D20D009F468943F912AE0E6
S1132920269F11243019305D3193DEF6CF010895CE
S1132930462F4770405D4193B3E00FD0C9F7F6CFFF
S1132940462F4F70405D4A3318F0495D31FD4052C7
S1132950419302D0A9F7EACFB4E0A695979587955D
S113296077956795BA95C9F700976105710508953C
S11329709B01AC010A2E06945795479537952795E8
S1132980BA95C9F7620F731F841F951FA01D089580
S1132990E199FECF9FBB8EBBE09A99278DB3089532
S11329A0262FE199FECF9FBB8EBB2DBB0FB6F894AB
S11129B0E29AE19A0FBE01960895F894FFCFC3
S11329BE61632073706F742077656C6465720000B8
S11329CE00000000000000000000000000000000F5
S11329DE00000000000000000000000000000000E5
S11329EE00000000000000000000000000000000D5
S11329FE00000000000000000000000000000000C5
S1132A0E00000000000000000000000000000000B4
S1132A1E00000000010001003C0054494D453D25D5
S1132A2E32640054494D453D25326420004D554CC9
S1132A3E543D2532642000524553543D25326420C2
S1132A4E004F4E2020004F46462020004F46462081
S1132A5E004C4B0074696D653D253264006D756CD8
S1132A6E743D25326400726573743D2532640061D1
S1132A7E75746F00737720200054494D45004D55F1
S1112A8E4C54005245535400205500204C0077
S9030000FC
